{
  "_format": "hh-sol-artifact-1",
  "contractName": "NftCollection",
  "sourceName": "contracts/NftCollection.sol",
  "abi": [
    {
      "inputs": [
        {
          "internalType": "string",
          "name": "_name",
          "type": "string"
        },
        {
          "internalType": "string",
          "name": "_symbol",
          "type": "string"
        },
        {
          "internalType": "uint256",
          "name": "_maxSupply",
          "type": "uint256"
        }
      ],
      "stateMutability": "nonpayable",
      "type": "constructor"
    },
    {
      "inputs": [
        {
          "internalType": "address",
          "name": "to",
          "type": "address"
        },
        {
          "internalType": "uint256",
          "name": "tokenId",
          "type": "uint256"
        }
      ],
      "name": "approve",
      "outputs": [],
      "stateMutability": "nonpayable",
      "type": "function"
    },
    {
      "inputs": [
        {
          "internalType": "address",
          "name": "wallet",
          "type": "address"
        }
      ],
      "name": "balanceOf",
      "outputs": [
        {
          "internalType": "uint256",
          "name": "",
          "type": "uint256"
        }
      ],
      "stateMutability": "view",
      "type": "function"
    },
    {
      "inputs": [
        {
          "internalType": "uint256",
          "name": "tokenId",
          "type": "uint256"
        }
      ],
      "name": "getApproved",
      "outputs": [
        {
          "internalType": "address",
          "name": "",
          "type": "address"
        }
      ],
      "stateMutability": "view",
      "type": "function"
    },
    {
      "inputs": [
        {
          "internalType": "address",
          "name": "wallet",
          "type": "address"
        },
        {
          "internalType": "address",
          "name": "operator",
          "type": "address"
        }
      ],
      "name": "isApprovedForAll",
      "outputs": [
        {
          "internalType": "bool",
          "name": "",
          "type": "bool"
        }
      ],
      "stateMutability": "view",
      "type": "function"
    },
    {
      "inputs": [],
      "name": "maxSupply",
      "outputs": [
        {
          "internalType": "uint256",
          "name": "",
          "type": "uint256"
        }
      ],
      "stateMutability": "view",
      "type": "function"
    },
    {
      "inputs": [],
      "name": "name",
      "outputs": [
        {
          "internalType": "string",
          "name": "",
          "type": "string"
        }
      ],
      "stateMutability": "view",
      "type": "function"
    },
    {
      "inputs": [],
      "name": "owner",
      "outputs": [
        {
          "internalType": "address",
          "name": "",
          "type": "address"
        }
      ],
      "stateMutability": "view",
      "type": "function"
    },
    {
      "inputs": [
        {
          "internalType": "uint256",
          "name": "tokenId",
          "type": "uint256"
        }
      ],
      "name": "ownerOf",
      "outputs": [
        {
          "internalType": "address",
          "name": "",
          "type": "address"
        }
      ],
      "stateMutability": "view",
      "type": "function"
    },
    {
      "inputs": [],
      "name": "pause",
      "outputs": [],
      "stateMutability": "nonpayable",
      "type": "function"
    },
    {
      "inputs": [],
      "name": "paused",
      "outputs": [
        {
          "internalType": "bool",
          "name": "",
          "type": "bool"
        }
      ],
      "stateMutability": "view",
      "type": "function"
    },
    {
      "inputs": [
        {
          "internalType": "address",
          "name": "to",
          "type": "address"
        },
        {
          "internalType": "uint256",
          "name": "tokenId",
          "type": "uint256"
        }
      ],
      "name": "safeMint",
      "outputs": [],
      "stateMutability": "nonpayable",
      "type": "function"
    },
    {
      "inputs": [
        {
          "internalType": "address",
          "name": "from",
          "type": "address"
        },
        {
          "internalType": "address",
          "name": "to",
          "type": "address"
        },
        {
          "internalType": "uint256",
          "name": "tokenId",
          "type": "uint256"
        },
        {
          "internalType": "bytes",
          "name": "data",
          "type": "bytes"
        }
      ],
      "name": "safeTransferFrom",
      "outputs": [],
      "stateMutability": "nonpayable",
      "type": "function"
    },
    {
      "inputs": [
        {
          "internalType": "address",
          "name": "operator",
          "type": "address"
        },
        {
          "internalType": "bool",
          "name": "approved",
          "type": "bool"
        }
      ],
      "name": "setApprovalForAll",
      "outputs": [],
      "stateMutability": "nonpayable",
      "type": "function"
    },
    {
      "inputs": [],
      "name": "symbol",
      "outputs": [
        {
          "internalType": "string",
          "name": "",
          "type": "string"
        }
      ],
      "stateMutability": "view",
      "type": "function"
    },
    {
      "inputs": [
        {
          "internalType": "uint256",
          "name": "tokenId",
          "type": "uint256"
        }
      ],
      "name": "tokenURI",
      "outputs": [
        {
          "internalType": "string",
          "name": "",
          "type": "string"
        }
      ],
      "stateMutability": "view",
      "type": "function"
    },
    {
      "inputs": [],
      "name": "totalSupply",
      "outputs": [
        {
          "internalType": "uint256",
          "name": "",
          "type": "uint256"
        }
      ],
      "stateMutability": "view",
      "type": "function"
    },
    {
      "inputs": [
        {
          "internalType": "address",
          "name": "from",
          "type": "address"
        },
        {
          "internalType": "address",
          "name": "to",
          "type": "address"
        },
        {
          "internalType": "uint256",
          "name": "tokenId",
          "type": "uint256"
        }
      ],
      "name": "transferFrom",
      "outputs": [],
      "stateMutability": "nonpayable",
      "type": "function"
    },
    {
      "inputs": [],
      "name": "unpause",
      "outputs": [],
      "stateMutability": "nonpayable",
      "type": "function"
    }
  ],
  "bytecode": "0x60806040523480156200001157600080fd5b5060405162001c7738038062001c7783398181016040528101906200003791906200029d565b826000908162000048919062000578565b5081600190816200005a919062000578565b5080600281905550600060038190555033600460006101000a81548173ffffffffffffffffffffffffffffffffffffffff021916908373ffffffffffffffffffffffffffffffffffffffff1602179055506000600460146101000a81548160ff0219169083151502179055505050506200065f565b6000604051905090565b600080fd5b600080fd5b600080fd5b600080fd5b6000601f19601f8301169050919050565b7f4e487b7100000000000000000000000000000000000000000000000000000000600052604160045260246000fd5b6200013882620000ed565b810181811067ffffffffffffffff821117156200015a5762000159620000fe565b5b80604052505050565b60006200016f620000cf565b90506200017d82826200012d565b919050565b600067ffffffffffffffff821115620001a0576200019f620000fe565b5b620001ab82620000ed565b9050602081019050919050565b60005b83811015620001d8578082015181840152602081019050620001bb565b60008484015250505050565b6000620001fb620001f58462000182565b62000163565b9050828152602081018484840111156200021a5762000219620000e8565b5b62000227848285620001b8565b509392505050565b600082601f830112620002475762000246620000e3565b5b815162000259848260208601620001e4565b91505092915050565b6000819050919050565b620002778162000262565b81146200028357600080fd5b50565b60008151905062000297816200026c565b92915050565b600080600060608486031215620002b957620002b8620000d9565b5b600084015167ffffffffffffffff811115620002da57620002d9620000de565b5b620002e8868287016200022f565b935050602084015167ffffffffffffffff8111156200030c576200030b620000de565b5b6200031a868287016200022f565b92505060406200032d8682870162000286565b9150509250925092565b600081519050919050565b7f4e487b7100000000000000000000000000000000000000000000000000000000600052602260045260246000fd5b600060028204905060018216806200038a57607f821691505b602082108103620003a0576200039f62000342565b5b50919050565b60008190508160005260206000209050919050565b60006020601f8301049050919050565b600082821b905092915050565b6000600883026200040a7fffffffffffffffffffffffffffffffffffffffffffffffffffffffffffffffff82620003cb565b620004168683620003cb565b95508019841693508086168417925050509392505050565b6000819050919050565b600062000459620004536200044d8462000262565b6200042e565b62000262565b9050919050565b6000819050919050565b620004758362000438565b6200048d620004848262000460565b848454620003d8565b825550505050565b600090565b620004a462000495565b620004b18184846200046a565b505050565b5b81811015620004d957620004cd6000826200049a565b600181019050620004b7565b5050565b601f8211156200052857620004f281620003a6565b620004fd84620003bb565b810160208510156200050d578190505b620005256200051c85620003bb565b830182620004b6565b50505b505050565b600082821c905092915050565b60006200054d600019846008026200052d565b1980831691505092915050565b60006200056883836200053a565b9150826002028217905092915050565b620005838262000337565b67ffffffffffffffff8111156200059f576200059e620000fe565b5b620005ab825462000371565b620005b8828285620004dd565b600060209050601f831160018114620005f05760008415620005db578287015190505b620005e785826200055a565b86555062000657565b601f1984166200060086620003a6565b60005b828110156200062a5784890151825560018201915060208501945060208101905062000603565b868310156200064a578489015162000646601f8916826200053a565b8355505b6001600288020188555050505b505050505050565b611608806200066f6000396000f3fe608060405234801561001057600080fd5b50600436106101165760003560e01c80638456cb59116100a2578063a22cb46511610071578063a22cb465146102a9578063b88d4fde146102c5578063c87b56dd146102e1578063d5abeb0114610311578063e985e9c51461032f57610116565b80638456cb59146102475780638da5cb5b1461025157806395d89b411461026f578063a14481941461028d57610116565b806323b872dd116100e957806323b872dd146101a35780633f4ba83a146101bf5780635c975abb146101c95780636352211e146101e757806370a082311461021757610116565b806306fdde031461011b578063081812fc14610139578063095ea7b31461016957806318160ddd14610185575b600080fd5b61012361035f565b6040516101309190610d0a565b60405180910390f35b610153600480360381019061014e9190610d76565b6103ed565b6040516101609190610de4565b60405180910390f35b610183600480360381019061017e9190610e2b565b61042a565b005b61018d61042e565b60405161019a9190610e7a565b60405180910390f35b6101bd60048036038101906101b89190610e95565b610434565b005b6101c7610439565b005b6101d16104e6565b6040516101de9190610f03565b60405180910390f35b61020160048036038101906101fc9190610d76565b6104f9565b60405161020e9190610de4565b60405180910390f35b610231600480360381019061022c9190610f1e565b6105aa565b60405161023e9190610e7a565b60405180910390f35b61024f610661565b005b61025961070e565b6040516102669190610de4565b60405180910390f35b610277610734565b6040516102849190610d0a565b60405180910390f35b6102a760048036038101906102a29190610e2b565b6107c2565b005b6102c360048036038101906102be9190610f77565b6109ae565b005b6102df60048036038101906102da91906110ec565b610a46565b005b6102fb60048036038101906102f69190610d76565b610a4c565b6040516103089190610d0a565b60405180910390f35b610319610aad565b6040516103269190610e7a565b60405180910390f35b6103496004803603810190610344919061116f565b610ab3565b6040516103569190610f03565b60405180910390f35b6000805461036c906111de565b80601f0160208091040260200160405190810160405280929190818152602001828054610398906111de565b80156103e55780601f106103ba576101008083540402835291602001916103e5565b820191906000526020600020905b8154815290600101906020018083116103c857829003601f168201915b505050505081565b60006007600083815260200190815260200160002060009054906101000a900473ffffffffffffffffffffffffffffffffffffffff169050919050565b5050565b60035481565b505050565b600460009054906101000a900473ffffffffffffffffffffffffffffffffffffffff1673ffffffffffffffffffffffffffffffffffffffff163373ffffffffffffffffffffffffffffffffffffffff16146104c9576040517f08c379a00000000000000000000000000000000000000000000000000000000081526004016104c09061125b565b60405180910390fd5b6000600460146101000a81548160ff021916908315150217905550565b600460149054906101000a900460ff1681565b6000806005600084815260200190815260200160002060009054906101000a900473ffffffffffffffffffffffffffffffffffffffff169050600073ffffffffffffffffffffffffffffffffffffffff168173ffffffffffffffffffffffffffffffffffffffff16036105a1576040517f08c379a0000000000000000000000000000000000000000000000000000000008152600401610598906112c7565b60405180910390fd5b80915050919050565b60008073ffffffffffffffffffffffffffffffffffffffff168273ffffffffffffffffffffffffffffffffffffffff160361061a576040517f08c379a000000000000000000000000000000000000000000000000000000000815260040161061190611333565b60405180910390fd5b600660008373ffffffffffffffffffffffffffffffffffffffff1673ffffffffffffffffffffffffffffffffffffffff168152602001908152602001600020549050919050565b600460009054906101000a900473ffffffffffffffffffffffffffffffffffffffff1673ffffffffffffffffffffffffffffffffffffffff163373ffffffffffffffffffffffffffffffffffffffff16146106f1576040517f08c379a00000000000000000000000000000000000000000000000000000000081526004016106e89061125b565b60405180910390fd5b6001600460146101000a81548160ff021916908315150217905550565b600460009054906101000a900473ffffffffffffffffffffffffffffffffffffffff1681565b60018054610741906111de565b80601f016020809104026020016040519081016040528092919081815260200182805461076d906111de565b80156107ba5780601f1061078f576101008083540402835291602001916107ba565b820191906000526020600020905b81548152906001019060200180831161079d57829003601f168201915b505050505081565b600460009054906101000a900473ffffffffffffffffffffffffffffffffffffffff1673ffffffffffffffffffffffffffffffffffffffff163373ffffffffffffffffffffffffffffffffffffffff1614610852576040517f08c379a00000000000000000000000000000000000000000000000000000000081526004016108499061125b565b60405180910390fd5b600460149054906101000a900460ff16156108a2576040517f08c379a00000000000000000000000000000000000000000000000000000000081526004016108999061139f565b60405180910390fd5b600073ffffffffffffffffffffffffffffffffffffffff168273ffffffffffffffffffffffffffffffffffffffff1603610911576040517f08c379a00000000000000000000000000000000000000000000000000000000081526004016109089061140b565b60405180910390fd5b61091a81610b47565b1561095a576040517f08c379a000000000000000000000000000000000000000000000000000000000815260040161095190611477565b60405180910390fd5b600254600354106109a0576040517f08c379a0000000000000000000000000000000000000000000000000000000008152600401610997906114e3565b60405180910390fd5b6109aa8282610bb3565b5050565b80600860003373ffffffffffffffffffffffffffffffffffffffff1673ffffffffffffffffffffffffffffffffffffffff16815260200190815260200160002060008473ffffffffffffffffffffffffffffffffffffffff1673ffffffffffffffffffffffffffffffffffffffff16815260200190815260200160002060006101000a81548160ff0219169083151502179055505050565b50505050565b6060610a5782610b47565b610a96576040517f08c379a0000000000000000000000000000000000000000000000000000000008152600401610a8d9061154f565b60405180910390fd5b604051806020016040528060008152509050919050565b60025481565b6000600860008473ffffffffffffffffffffffffffffffffffffffff1673ffffffffffffffffffffffffffffffffffffffff16815260200190815260200160002060008373ffffffffffffffffffffffffffffffffffffffff1673ffffffffffffffffffffffffffffffffffffffff16815260200190815260200160002060009054906101000a900460ff16905092915050565b60008073ffffffffffffffffffffffffffffffffffffffff166005600084815260200190815260200160002060009054906101000a900473ffffffffffffffffffffffffffffffffffffffff1673ffffffffffffffffffffffffffffffffffffffff1614159050919050565b816005600083815260200190815260200160002060006101000a81548173ffffffffffffffffffffffffffffffffffffffff021916908373ffffffffffffffffffffffffffffffffffffffff1602179055506001600660008473ffffffffffffffffffffffffffffffffffffffff1673ffffffffffffffffffffffffffffffffffffffff1681526020019081526020016000206000828254610c55919061159e565b92505081905550600160036000828254610c6f919061159e565b925050819055505050565b600081519050919050565b600082825260208201905092915050565b60005b83811015610cb4578082015181840152602081019050610c99565b60008484015250505050565b6000601f19601f8301169050919050565b6000610cdc82610c7a565b610ce68185610c85565b9350610cf6818560208601610c96565b610cff81610cc0565b840191505092915050565b60006020820190508181036000830152610d248184610cd1565b905092915050565b6000604051905090565b600080fd5b600080fd5b6000819050919050565b610d5381610d40565b8114610d5e57600080fd5b50565b600081359050610d7081610d4a565b92915050565b600060208284031215610d8c57610d8b610d36565b5b6000610d9a84828501610d61565b91505092915050565b600073ffffffffffffffffffffffffffffffffffffffff82169050919050565b6000610dce82610da3565b9050919050565b610dde81610dc3565b82525050565b6000602082019050610df96000830184610dd5565b92915050565b610e0881610dc3565b8114610e1357600080fd5b50565b600081359050610e2581610dff565b92915050565b60008060408385031215610e4257610e41610d36565b5b6000610e5085828601610e16565b9250506020610e6185828601610d61565b9150509250929050565b610e7481610d40565b82525050565b6000602082019050610e8f6000830184610e6b565b92915050565b600080600060608486031215610eae57610ead610d36565b5b6000610ebc86828701610e16565b9350506020610ecd86828701610e16565b9250506040610ede86828701610d61565b9150509250925092565b60008115159050919050565b610efd81610ee8565b82525050565b6000602082019050610f186000830184610ef4565b92915050565b600060208284031215610f3457610f33610d36565b5b6000610f4284828501610e16565b91505092915050565b610f5481610ee8565b8114610f5f57600080fd5b50565b600081359050610f7181610f4b565b92915050565b60008060408385031215610f8e57610f8d610d36565b5b6000610f9c85828601610e16565b9250506020610fad85828601610f62565b9150509250929050565b600080fd5b600080fd5b7f4e487b7100000000000000000000000000000000000000000000000000000000600052604160045260246000fd5b610ff982610cc0565b810181811067ffffffffffffffff8211171561101857611017610fc1565b5b80604052505050565b600061102b610d2c565b90506110378282610ff0565b919050565b600067ffffffffffffffff82111561105757611056610fc1565b5b61106082610cc0565b9050602081019050919050565b82818337600083830152505050565b600061108f61108a8461103c565b611021565b9050828152602081018484840111156110ab576110aa610fbc565b5b6110b684828561106d565b509392505050565b600082601f8301126110d3576110d2610fb7565b5b81356110e384826020860161107c565b91505092915050565b6000806000806080858703121561110657611105610d36565b5b600061111487828801610e16565b945050602061112587828801610e16565b935050604061113687828801610d61565b925050606085013567ffffffffffffffff81111561115757611156610d3b565b5b611163878288016110be565b91505092959194509250565b6000806040838503121561118657611185610d36565b5b600061119485828601610e16565b92505060206111a585828601610e16565b9150509250929050565b7f4e487b7100000000000000000000000000000000000000000000000000000000600052602260045260246000fd5b600060028204905060018216806111f657607f821691505b602082108103611209576112086111af565b5b50919050565b7f4e6f7420617574686f72697a6564000000000000000000000000000000000000600082015250565b6000611245600e83610c85565b91506112508261120f565b602082019050919050565b6000602082019050818103600083015261127481611238565b9050919050565b7f546f6b656e20646f6573206e6f74206578697374000000000000000000000000600082015250565b60006112b1601483610c85565b91506112bc8261127b565b602082019050919050565b600060208201905081810360008301526112e0816112a4565b9050919050565b7f5a65726f206164647265737320696e76616c6964000000000000000000000000600082015250565b600061131d601483610c85565b9150611328826112e7565b602082019050919050565b6000602082019050818103600083015261134c81611310565b9050919050565b7f4d696e74696e6720706175736564000000000000000000000000000000000000600082015250565b6000611389600e83610c85565b915061139482611353565b602082019050919050565b600060208201905081810360008301526113b88161137c565b9050919050565b7f43616e6e6f74206d696e7420746f207a65726f20616464726573730000000000600082015250565b60006113f5601b83610c85565b9150611400826113bf565b602082019050919050565b60006020820190508181036000830152611424816113e8565b9050919050565b7f546f6b656e20616c726561647920657869737473000000000000000000000000600082015250565b6000611461601483610c85565b915061146c8261142b565b602082019050919050565b6000602082019050818103600083015261149081611454565b9050919050565b7f4d617820737570706c7920726561636865640000000000000000000000000000600082015250565b60006114cd601283610c85565b91506114d882611497565b602082019050919050565b600060208201905081810360008301526114fc816114c0565b9050919050565b7f43616e6e6f74207175657279206e6f6e2d6578697374656e7420746f6b656e00600082015250565b6000611539601f83610c85565b915061154482611503565b602082019050919050565b600060208201905081810360008301526115688161152c565b9050919050565b7f4e487b7100000000000000000000000000000000000000000000000000000000600052601160045260246000fd5b60006115a982610d40565b91506115b483610d40565b92508282019050808211156115cc576115cb61156f565b5b9291505056fea26469706673582212207dcc6be80b1399285bf8cfd762589849fc92147ed2a4345dd3b6ab6d0524ef6064736f6c63430008130033",
  "linkReferences": {},
  "deployedLinkReferences": {}
}